:1009C800456E7465722036342062697420666F72D1
:1009D8002000204D61736B20275A273A20627974D2
:1009E80065206F66207A65726F2C202758273A2079
:1009F80062797465206F66206F6E652C202730271A
:100A080020626974206F66207A65726F2C20273106
:100A180027626974206F66207A65726F200D0A005C
:100A280066696E69736865642072656164696E677A
:100A3800206D61736B200A0D0066696E69736865C5
:100A4800642077726974696E67206D61736B200A20
:100A58000D000A0D636F6E66696775726520444CF8
:100A68004120547269676765723A200A0D00466F23
:100A780072207072652D74726967657220656E7474
:100A88006572203020616E6420666F7220706F730B
:100A98007420656E74657220310A0D000A0D636F4B
:100AA8006E66696775726520444C41204D61736BB1
:100AB800733A200A0D004849004C6F7700506F7355
:100AC8002045646765004E65672045646765004496
:100AD8006F6E7420436172650044617461204361E4
:100AE800707475726564200A0D00616464726573C0
:100AF80065642073746F706564206174203A002007
:100B08000D0A00616464726573733A203078003AA4
:060B18002000200A0D0080
:100EDA00011230081B000000000000000008230077
:100EEA0000000000000000082B00000000000000C5
:100EFA000008130000000000000000080A000000BB
:050F0A000000000000E2
:010F9D002231
:0C0F5F00438920758DFD759850D28E22BC
:080F95003099FDC2998F9922E9
:0B0F6B003098FDC298AE99AF06F195DA
:010F76002258
:060F10008B488A49894A62
:100F1600E4FDFCAB48AA49A94A8D828C839121FF46
:0B0F26006009F1950DBD00010C80E892
:010F3100229D
:040E0B00AB07AA0681
:100E0F007542007543029000007C007D10AF03AE69
:100E1F00029160AF82EF25E0243CF8A60408A605F6
:100E2F007C007D10AF03AE029160AA06AB07A3E56D
:100E3F00826403458370D2E54145407005F54275E4
:100E4F004301854283854382C3E583648094804058
:100E5F0035AF82EF25E0243CF8E6FE08E6FFC394A9
:100E6F000AEE648094805005EF2430800CAF82EF3F
:100E7F0025E0243CF808E62437FFF195E58215823A
:060E8F0070C6158380C24D
:010E9500223A
:060800008B3C8A3D893E9D
:10080600E4F546F5477BFF7A0979C8F110AB3CAAB7
:100816003DA93EF1107BFF7A0979DAF110754200A5
:1008260075433FC3E54264809480500221C0F16B5A
:10083600EF24E5700221C024EB70022178147002C7
:10084600213124D9607724E0607324FE60042420DB
:1008560070D1E4F544F545C3E5459408E544648064
:10086600948050BFC3E5426480948040B6AE42AFE8
:10087600437C007D089160AB3FE5412FF9E5403EA2
:10088600FAC003C002C0019108FBAE42AF437C0030
:100896007D089160AF057401A807088002C333D8AC
:1008A600FCF45BD001D002D003914EE543154370B2
:1008B6000215420545E545709E0544809AE4F544D7
:1008C600F545C3E5459408E54464809480400201FB
:1008D60029C3E5426480948050020129AE42AF43A9
:1008E6007C007D089160AB3FE5412FF9E5403EFA7B
:1008F600C003C002C0019108FBAE42AF437C007D3D
:10090600089160AF057401A807088002C333D8FCBC
:100916004BD001D002D003914EE54315437002152A
:10092600420545E545709B05448097AE42AF437C42
:10093600007D089160AB3FE5412FF9E5403EFAC0E6
:1009460003C002C0019108FBAE42AF437C007D08A4
:100956009160AF057401A807088002C333D8FC4B29
:10096600D001D002D003914EE543154370021542E3
:100976000129AE42AF437C007D089160AB3FE54163
:100986002FF9E5403EFAC003C002C0019108FBAE54
:1009960042AF437C007D089160AF057401A807084B
:1009A6008002C333D8FCF45BD001D002D003914E51
:1009B600E54315437002154201297BFF7A0A79281F
:0209C600E1103E
:040E96007B007C0061
:060E9A008B3C8A3D893EFD
:100EA000753F0075400075417E8D80E4FFFE8F9098
:100EB000AB3CAA3DA93E8F828E839121F5A0AB3F2A
:100EC000AA40A941E4914E0FBF00010EEF64084E05
:0A0ED00070DC7BFF7A0A7941E11023
:0A0F77007B007A00797A7401814E44
:0A0F81007B007A00797B7401814E39
:0A0F8B007B007A00797C7401814E2E
:100F4A007B007A00797FBF3005E4F58080037580E5
:050F5A00017401814E4D
:100F3200F1817BFF7A0A795AF1107BFF7A0A79767E
:080F4200F110F16B8F12E14A7E
:100CEB00F1817BFF7A0A79A4F110753F0075400002
:100CFB0075411B7BFF7A0A79BE1100753F00754069
:100D0B00007541237BFF7A0A79C11100753F00758D
:100D1B00400075412B7BFF7A0A79C51100753F00A6
:100D2B007540007541137BFF7A0A79CE1100753F30
:100D3B000075400075410A7BFF7A0A79D711007A5A
:100D4B0000791B7D04120E967A0079237D03120E17
:100D5B00967B007A00792B7D017C00D19A7B007AFF
:100D6B000079137D027C00D19A7B007A00790AE42A
:040D7B00FDFCC19A20
:100B1E00E4F539F53AF15FD299F181E5B0700261F1
:100B2E00D4E4F539F53A7BFF7A0A79E1F1107BFFCF
:100B3E007A0A79F2F110AF907E00D10BAF807E0071
:100B4E00D10B7BFF7A0B7907F110E4F533F5348581
:100B5E003490E4F535F5368536807BFF7A0B790BCC
:100B6E00F110AF34AE33D10BAF36AE35D10B7BFFB8
:100B7E007A0B7917F1107537007538078538A0AFE5
:100B8E00A07E00D10BE538153870021537C3E53756
:100B9E006480948050E67BFF7A0B791AF11005364B
:100BAE00E53670020535C394FFE5356480948040C8
:100BBE00A60534E53470020533C39404E53364802E
:100BCE009480408BF181309806F16B8F3B8003E46B
:100BDE00F53BE53B24AD601C14601524E7600D2445
:100BEE00FA601114600A24276002612991EB6129D1
:0A0BFE00F1326129F177F18B6129D2
:03000000020D7F6F
:0C0D7F00787FE4F6D8FD75814A020DC6AD
:100C0800BB010689828A83E0225002E722BBFE02EA
:090C1800E32289828A83E493221D
:100C2100BB010CE58229F582E5833AF583E0225088
:100C310006E92582F8E622BBFE06E92582F8E222D2
:0D0C4100E58229F582E5833AF583E49322EC
:100C4E00BB010689828A83F0225002F722BBFE0185
:020C5E00F3227F
:100C6000C2D5EC30E709B2D5E4C39DFDE49CFCEEAF
:100C700030E715B2D5E4C39FFFE49EFE120C96C385
:100C8000E49DFDE49CFC8003120C9630D507C3E480
:060C90009FFFE49EFE221E
:100D8B00020B1EE493A3F8E493A34003F68001F255
:100D9B0008DFF48029E493A3F85407240CC8C33369
:100DAB00C4540F4420C8834004F456800146F6DF38
:100DBB00E4800B0102040810204080900EDAE47EE0
:100DCB00019360BCA3FF543F30E509541FFEE4932D
:100DDB00A360010ECF54C025E060A840B8E493A3F4
:100DEB00FAE493A3F8E493A3C8C582C8CAC583CA1F
:100DFB00F0A3C8C582C8CAC583CADFE9DEE780BED7
:010F0F0000E1
:100C9600BC000BBE0029EF8DF084FFADF022E4CC42
:100CA600F875F008EF2FFFEE33FEEC33FCEE9DEC0B
:100CB600984005FCEE9DFE0FD5F0E9E4CEFD22ED51
:100CC600F8F5F0EE8420D21CFEADF075F008EF2F9B
:100CD600FFED33FD4007985006D5F0F222C398FD8C
:050CE6000FD5F0EA2229
:00000001FF
